:0400000077EF09F09D
:100800000027313020706F776572207468726565DB
:10081000203D202564270A0027313020706F77653E
:10082000722074776F203D202564270A00312069EB
:1008300073206E6F742061206E65676174697665E0
:100840000027313020252032203D202564270A0052
:10085000273130202A2032203D202564270A002716
:100860003130202B2032203D202564270A002731FB
:1008700030202D2032203D202564270A00273130EA
:10088000202F2032203D202564270A0066616C73EA
:1008900065007472756500002650D96EDA6ADFCF84
:1008A000F6FF080EF76E0800F550250AD8A45BEF96
:1008B00004F05DEF04F0E8EF04F02650D96EDA6A38
:1008C000DF2A000E516E000E506E50C054F0526878
:1008D00053682C6A86EF04F054862650D96EDA6A83
:1008E000DF2A86EF04F0010E2C6E86EF04F026500E
:1008F000D96EDA6ADFCFF6FF080EF76E0800F55002
:10090000200AD8B46CEF04F073EF04F02C50D8B484
:100910008CEF04F08EEF04F077EF04F026C001F0C6
:1009200027C002F0B6EC07F001C050F002C051F051
:1009300051BE9FEF04F09DEF04F0A4EF04F054804B
:10094000506C511ED8B0512A2650D96EDA6ADF5049
:100950002D6E2DC0F6FF080EF76E0800F550640AE4
:10096000D8B4B5EF04F0B7EF04F0C5EF04F02DC034
:10097000F6FF080EF76E0800F550690AD8A4C3EF19
:1009800004F0C5EF04F0E2EF04F02750D96EDA6A04
:10099000020EDF26DF5CD96EDA6ADECF28F0DECF0A
:1009A00029F02650D96EDA6A2D28DF6E24C018F09F
:1009B00025C019F028C01AF029C01BF0FCEC04F087
:1009C000FBEF04F02650D96EDA6ADF2AFBEF04F061
:1009D0002650D96EDA6ADFCFF6FF080EF76E0800F0
:1009E000F550016E026A24C003F025C004F037EC14
:1009F00006F0E2EF04F01200010E1E6E1BBE03EFC4
:100A000005F006EF05F0010E07EF05F0000E216E70
:100A100050C01FF051C020F02150D8B412EF05F0A3
:100A200014EF05F02DEF05F01F06D8A02006215089
:100A3000D8A41DEF05F01FEF05F025EF05F0000E1F
:100A40001D6E2B0E1C6E29EF05F0000E1D6E2D0E77
:100A50001C6E1CC021F039EF05F054A632EF05F0F2
:100A600034EF05F039EF05F01F06D8A02006200E60
:100A7000216E000E236E1F0E226E00017F6B6DEF44
:100A800005F02206D8A023062250600FD96EDA6A3C
:100A90001AC001F01BC002F0000E046E0A0E036EB5
:100AA0005FEC07F001C007F002C008F05DEC09F050
:100AB0000750300FDF6E1E6A1F06D8A020061AC02E
:100AC00001F01BC002F0000E046E0A0E036EFEEC75
:100AD00006F001C01AF002C01BF023BE78EF05F04B
:100AE000235008E12204D8A078EF05F07AEF05F052
:100AF0008BEF05F01A501B10D8A481EF05F083EF9F
:100B000005F041EF05F01E50D8A489EF05F08BEFFA
:100B100005F041EF05F02150D8B491EF05F093EFC7
:100B200005F09CEF05F02206D8A023062250600FA6
:100B3000D96EDA6A21C0DFFF18C010F019C011F0B9
:100B40002250600F126E1FC013F020C014F057EC3B
:100B500008F012005F0E336E000E026E0A0E016E78
:100B6000000E046E020E036EBEEC09F001C034F0FC
:100B700002C035F096EC09F06E0E336E000E026E78
:100B80000A0E016E000E046E020E036EB7EC09F041
:100B900001C034F002C035F096EC09F0500E336E0F
:100BA000000E1A6E0A0E196E000E1C6E020E1B6EDF
:100BB0009CEC06F019C034F01AC035F096EC09F040
:100BC0007D0E336E000E0A6E0A0E096E000E0C6E5C
:100BD000020E0B6E3FEC09F009C034F00AC035F08C
:100BE00096EC09F0410E336E000E086E0A0E076E89
:100BF000000E0A6E020E096E87EC09F007C034F091
:100C000008C035F096EC09F0180E336E000E2F6E0A
:100C10000A0E2E6EA3EC09F02EC034F02FC035F072
:100C200096EC09F0010E336E080E256E020ED3EC21
:100C300008F025C034F026C035F096EC09F02D0EF2
:100C4000336E000E026E010E016EADEC09F03B6ECC
:100C50003B50346E356A96EC09F03C0E016E000E86
:100C6000036E0A0E026EA2EC08F000EF00F00350D3
:100C70000410D8B43EEF06F040EF06F049EF06F05E
:100C800003500410D8A447EF06F049EF06F04EEFEA
:100C900006F00150C5EC09F09BEF06F020EE09F0DC
:100CA0000350D9260450DA22DE50DE10D8B45BEFB0
:100CB00006F05DEF06F078EF06F020EE09F0035045
:100CC000D9260450DA2210EE02F00350E126045037
:100CD000E222DE50E65CE650800A096EDE50800AB1
:100CE0000958D8B076EF06F078EF06F09BEF06F0E3
:100CF00020EE02F00350D9260450DA22DECF05F0B0
:100D0000DDCF06F003C0D9FF04C0DAFFDECF07F065
:100D1000DDCF08F005500724D96E06500820DA6EA2
:100D200001C0DFFF20EE02F00350D9260450DA2282
:100D3000DE2A000EDD22120019C001F01AC002F0F6
:100D4000000E02BEFF0E036E046E056E066E076E89
:100D5000086E1BC009F01CC00AF0000E0ABEFF0E90
:100D60000B6E0C6E0D6E0E6E0F6E106E08EC08F0B2
:100D700001C01DF002C01EF003C01FF004C020F02F
:100D800005C021F006C022F007C023F008C024F0FF
:100D900024BEDCEF06F02450231022102110201076
:100DA0001F1008E11D287F0E1E58D8B0DAEF06F09C
:100DB000DCEF06F0FBEF06F024AEF5EF06F01D04C5
:100DC000800E1E58FF0E1F58FF0E2058FF0E215890
:100DD000FF0E2258FF0E2358FF0E2458D8A0F3EF21
:100DE00006F0F5EF06F0FBEF06F01DC019F01EC08F
:100DF0001AF0FDEF06F019681A681200066A04BEC0
:100E000006EF07F004EF07F00CEF07F0036C041E89
:100E1000D8B0042A010E066E02BE13EF07F011EFE0
:100E200007F019EF07F0016C021ED8B0022A010E7C
:100E3000061A000E086E000E076E03500410D8B498
:100E400024EF07F026EF07F04EEF07F0010E056ED6
:100E50002EEF07F0D89003360436052A04AE33EFA0
:100E600007F035EF07F02AEF07F0D890073608367D
:100E70000350015C04500258D8A041EF07F043EF43
:100E800007F048EF07F00350015E0450025A078054
:100E9000D89004320332052E35EF07F00650D8B44F
:100EA00054EF07F056EF07F05AEF07F0076C081EF3
:100EB000D8B0082A07C001F008C002F01200066A84
:100EC00002BE67EF07F065EF07F06DEF07F0016C0A
:100ED000021ED8B0022A010E066E04BE74EF07F09F
:100EE00072EF07F078EF07F0036C041ED8B0042A05
:100EF00003500410D8B47FEF07F081EF07F0A5EF9F
:100F000007F0010E056E89EF07F0D890033604361E
:100F1000052A04AE8EEF07F090EF07F085EF07F09B
:100F20000350015C04500258D8A099EF07F09BEFE2
:100F300007F09FEF07F00350015E0450025AD8906B
:100F400004320332052E90EF07F00650D8B4ABEF11
:100F500007F0ADEF07F0B1EF07F0016C021ED8B05B
:100F6000022A01C001F002C002F01200000E076E5A
:100F7000000E066E0150D96EDA6ADFCFF6FF080E5A
:100F8000F76E0800F5502A0AD8A4C9EF07F0CBEF96
:100F900007F0F0EF07F00150D96EDA6ADF2A02504D
:100FA000D96EDA6A020EDF26DF5CD96EDA6ADECF2E
:100FB00006F0DECF07F003EF08F00A0E0602F3CFCB
:100FC00003F0F4CF04F00702F35004260550032485
:100FD000066E000E0420076E0150D96EDA6ADF2A11
:100FE0000150D96EDA6ADFCFF6FF080EF76E0800FF
:100FF000F550D00F056E090E056401EF08F003EF00
:1010000008F0DDEF07F006C001F007C002F01200A3
:1010100020EE11F0070EDE6AE806FDE201A013EFF4
:1010200008F015EF08F025EF08F0095011260A50D6
:1010300012220B5013220C5014220D5015220E5068
:1010400016220F50172210501822D89009360A364F
:101050000B360C360D360E360F361036D890083259
:1010600007320632053204320332023201320150B5
:101070000210031004100510061007100810D8A461
:1010800044EF08F046EF08F00EEF08F011C001F051
:1010900012C002F013C003F014C004F015C005F034
:1010A00016C006F017C007F018C008F0120054A0D0
:1010B0005CEF08F05EEF08F066EF08F012C00AF08F
:1010C00010C00BF011C00CF01FEC09F014BE6DEF56
:1010D00008F06BEF08F071EF08F0000E146E000ED0
:1010E000136E000E176E000E166E83EF08F0000EE2
:1010F000026E200E016E10C003F011C004F037EC38
:1011000006F0164A172A1350165C1750800A156EFF
:101110001450800A1558D8A090EF08F092EF08F00C
:1011200077EF08F054B097EF08F099EF08F0A1EFCF
:1011300008F012C00AF010C00BF011C00CF01FEC48
:1011400009F0120003BEB0EF08F0035007E1090EEA
:10115000025CD8B0AEEF08F0B0EF08F0B2EF08F0E4
:10116000D2EF08F0000E056E010E046E0450020D61
:101170000150F324D96EDA6AFE0ED92604C0DEFFD0
:1011800005C0DDFF044A052A05BED0EF08F0055072
:1011900009E10A0E045CD8A0D0EF08F0D2EF08F005
:1011A000B6EF08F012002C6E2CC02DF0000E2B6E46
:1011B000010E2A6EE8EF08F02DC019F01A6A2CC053
:1011C0001BF01C6A9CEC06F019502D6E2A4A2B2A43
:1011D0002550276E286A27502A5C2B50800A296EDA
:1011E0002850800A2958D8A0F8EF08F0FAEF08F044
:1011F000DCEF08F02DC025F0266A120030C032F076
:101200000CEF09F02EC024F02FC025F0320E266E10
:1012100031C027F04CEC04F032C0F6FF080EF76E38
:101220000800F5500009D8A418EF09F01AEF09F0EA
:1012300002EF09F0000E2F6E000E2E6E1200000E4F
:101240000F6E000E0E6E30EF09F00DC001F0026A55
:101250000BC003F00CC004F037EC06F00E4A0F2A66
:101260000A500E24D96EDA6ADF500D6E0D50D8A4E4
:101270003CEF09F03EEF09F025EF09F012000B50AA
:101280000C10D8B446EF09F048EF09F058EF09F018
:1012900009C001F00AC002F00BC003F00CC004F05A
:1012A000FEEC06F001C009F002C00AF05CEF09F0A4
:1012B000000E0A6E000E096E120008BE62EF09F001
:1012C00064EF09F06AEF09F007C007F008C008F002
:1012D00076EF09F007C009F008C00AF0091E0A1EDF
:1012E000094A0A2A09C007F00AC008F0120000EEF5
:1012F00060F0200EEE6AE806FDE1546A536A526A15
:10130000516A506A000EF86E0001AAEF05F007C09E
:1013100001F008C002F009C003F00AC004F05FEC5D
:1013200007F001C007F002C008F01200340E366E5C
:10133000000E2E6E000E2F6E33C030F0360E316E62
:10134000FEEC08F01200020E256E2E50D3EC08F0D1
:1013500025C02EF026C02FF0120002BEB2EF09F019
:10136000B5EF09F0010EB6EF09F0000E12000350C0
:10137000015C016E04500258026E120003500124F9
:0C138000016E04500220026E12001200E8
:00000001FF
